:020000040000fa
:080000000002040000000000f2
:020000040000fa
:04000800fa020000f8
:020000040000fa
:04000c00fa020000f4
:020000040000fa
:04001000fa020000f0
:020000040000fa
:04001400fa020000ec
:020000040000fa
:04001800fa020000e8
:020000040000fa
:04001c00fa020000e4
:020000040000fa
:04002000fa020000e0
:020000040000fa
:04002400fa020000dc
:020000040000fa
:04002800fa020000d8
:020000040000fa
:04002c00fa020000d4
:020000040000fa
:04003000fa020000d0
:020000040000fa
:04003400a215000011
:020000040000fa
:04003800fa020000c8
:020000040000fa
:04003c00fa020000c4
:020000040000fa
:04004000fa020000c0
:020000040000fa
:040044002c16000076
:020000040000fa
:040048004c16000052
:020000040000fa
:04004c00fa020000b4
:020000040000fa
:04005000fa020000b0
:020000040000fa
:04005400fa020000ac
:020000040000fa
:04005800fa020000a8
:020000040000fa
:04005c00fa020000a4
:020000040000fa
:04006000fa020000a0
:020000040000fa
:04006400fa0200009c
:020000040000fa
:04006800fa02000098
:020000040000fa
:04006c00fa02000094
:020000040000fa
:04007000fa02000090
:020000040000fa
:04007400fa0200008c
:020000040000fa
:04007800fa02000088
:020000040000fa
:04007c00fa02000084
:020000040000fa
:04008000fa02000080
:020000040000fa
:04008400fa0200007c
:020000040000fa
:04008800fa02000078
:020000040000fa
:04008c00fa02000074
:020000040000fa
:04009000fa02000070
:020000040000fa
:04009400fa0200006c
:020000040000fa
:04009800fa02000068
:020000040000fa
:04009c00fa02000064
:020000040000fa
:0400a000fa02000060
:020000040000fa
:0400a400fa0200005c
:020000040000fa
:0400a800fa02000058
:020000040000fa
:0400ac00fa02000054
:020000040000fa
:0400b000fa02000050
:020000040000fa
:0400b400fa0200004c
:020000040000fa
:0400b800fa02000048
:020000040000fa
:0400bc00fa02000044
:020000040000fa
:0400c000fa02000040
:020000040000fa
:0400c400fa0200003c
:020000040000fa
:0400c800fa02000038
:020000040000fa
:0400cc00fa02000034
:020000040000fa
:0400d000fa02000030
:020000040000fa
:0400d400fa0200002c
:020000040000fa
:0400d800fa02000028
:020000040000fa
:0400dc00fa02000024
:020000040000fa
:0400e000fa02000020
:020000040000fa
:0400e400fa0200001c
:020000040000fa
:0400e800fa02000018
:020000040000fa
:0400ec00fa02000014
:020000040000fa
:0400f000fa02000010
:020000040000fa
:0400f400fa0200000c
:020000040000fa
:0400f800fa02000008
:020000040000fa
:0400fc00fa02000004
:020000040000fa
:04010000fa020000ff
:020000040000fa
:04010400fa020000fb
:020000040000fa
:04010800fa020000f7
:020000040000fa
:04010c00fa020000f3
:020000040000fa
:040110007a0f000062
:020000040000fa
:04011400fa020000eb
:020000040000fa
:04011800fa020000e7
:020000040000fa
:04011c00fa020000e3
:020000040000fa
:04012000fa020000df
:020000040000fa
:04012400fa020000db
:020000040000fa
:04012800fa020000d7
:020000040000fa
:04012c00fa020000d3
:020000040000fa
:04013000fa020000cf
:020000040000fa
:04013400fa020000cb
:020000040000fa
:04013800fa020000c7
:020000040000fa
:04013c00fa020000c3
:020000040000fa
:04014000fa020000bf
:020000040000fa
:04014400fa020000bb
:020000040000fa
:04014800fa020000b7
:020000040000fa
:04014c00fa020000b3
:020000040000fa
:04015000fa020000af
:020000040000fa
:04015400fa020000ab
:020000040000fa
:04015800fa020000a7
:020000040000fa
:04015c00fa020000a3
:020000040000fa
:04016000fa0200009f
:020000040000fa
:04016400fa0200009b
:020000040000fa
:04016800fa02000097
:020000040000fa
:04016c00fa02000093
:020000040000fa
:04017000fa0200008f
:020000040000fa
:04017400fa0200008b
:020000040000fa
:04017800fa02000087
:020000040000fa
:04017c00fa02000083
:020000040000fa
:04018000fa0200007f
:020000040000fa
:04018400fa0200007b
:020000040000fa
:04018800fa02000077
:020000040000fa
:04018c00fa02000073
:020000040000fa
:04019000fa0200006f
:020000040000fa
:04019400fa0200006b
:020000040000fa
:04019800fa02000067
:020000040000fa
:04019c00fa02000063
:020000040000fa
:0401a000fa0200005f
:020000040000fa
:0401a400fa0200005b
:020000040000fa
:0401a800fa02000057
:020000040000fa
:0401ac00fa02000053
:020000040000fa
:0401b000fa0200004f
:020000040000fa
:0401b400fa0200004b
:020000040000fa
:0401b800fa02000047
:020000040000fa
:0401bc00fa02000043
:020000040000fa
:0401c000fa0200003f
:020000040000fa
:0401c400fa0200003b
:020000040000fa
:0401c800fa02000037
:020000040000fa
:0401cc00fa02000033
:020000040000fa
:0401d000fa0200002f
:020000040000fa
:0401d400fa0200002b
:020000040000fa
:0401d800fa02000027
:020000040000fa
:0401dc00fa02000023
:020000040000fa
:0401e000fa0200001f
:020000040000fa
:0401e400fa0200001b
:020000040000fa
:0401e800fa02000017
:020000040000fa
:0401ec00fa02000013
:020000040000fa
:0401f000fa0200000f
:020000040000fa
:0401f400fa0200000b
:020000040000fa
:0401f800fa02000007
:020000040000fa
:0401fc00fa02000003
:020000040000fa
:04020000fa020000fe
:020000040000fa
:04020400fa020000fa
:020000040000fa
:04020800fa020000f6
:020000040000fa
:04020c00fa020000f2
:020000040000fa
:04021000fa020000ee
:020000040000fa
:04021400fa020000ea
:020000040000fa
:04021800fa020000e6
:020000040000fa
:04021c00fa020000e2
:020000040000fa
:04022000fa020000de
:020000040000fa
:04022400fa020000da
:020000040000fa
:04022800fa020000d6
:020000040000fa
:04022c00fa020000d2
:020000040000fa
:04023000fa020000ce
:020000040000fa
:04023400fa020000ca
:020000040000fa
:04023800fa020000c6
:020000040000fa
:04023c00fa020000c2
:020000040000fa
:04024000fa020000be
:020000040000fa
:04024400fa020000ba
:020000040000fa
:04024800fa020000b6
:020000040000fa
:04024c00fa020000b2
:020000040000fa
:04025000fa020000ae
:020000040000fa
:04025400fa020000aa
:020000040000fa
:04025800fa020000a6
:020000040000fa
:04025c00fa020000a2
:020000040000fa
:04026000fa0200009e
:020000040000fa
:04026400fa0200009a
:020000040000fa
:04026800fa02000096
:020000040000fa
:04026c00fa02000092
:020000040000fa
:04027000fa0200008e
:020000040000fa
:04027400fa0200008a
:020000040000fa
:04027800fa02000086
:020000040000fa
:04027c00fa02000082
:020000040000fa
:04028000fa0200007e
:020000040000fa
:10040000cf1821000eff21000e018800000000001f
:10041000000020000000e000020032000001200087
:100420002002880014000700740007000000e000ac
:1004300003003a00809321000100200002003700f1
:100440000000200001002000810f70000100320038
:100450000f000700000020000000e0000200320052
:100460000000020000000000000c0200000000007c
:100470000040da000000fe00200020000000e00044
:1004800002003200100020009001880000000600e9
:10049000a1028800800478000000eb001f003700f4
:1004a000e284440054a0b4009905ba00e2844400f8
:1004b00054a0b4009906ba00e284440054a0b400e9
:1004c0000006eb00476fde00fd07b200ae018800ba
:1004d000636ce10003003a000ad801000000eb0061
:1004e0000e003700606ce10008003a00004deb00a0
:1004f0000a05e800020039003420ec000af0a000f0
:100500008b05e900f9ff3e00040037006168e10057
:10051000010032000086eb000b00070019c7ba008b
:100520001905ba000e04e00003003a000a00e000da
:10053000dbff3a0000000600fe07b200ae028800b2
:100540008a047800f5ff37000cd0a300e20f4d00bd
:100550001c00390089027800354dba000a05e80010
:10056000020039003420ec000af0a0008b05e900fd
:100570000f003200254dba000a05e80002003900dc
:100580003420ec000af0a0008b05e90008003200de
:100590000c00e0000600320015cdba000a05e800a4
:1005a000020039003420ec000af0a0008b05e900bd
:1005b0008984e80054a0b4000b00e000e2ff3a0098
:1005c000000006009902ba00055d78008b05e9007d
:1005d000f7ff3200c82ade00055d78008b05e900d0
:1005e000f3ff32000c00e000f1ff320019ddba0029
:1005f000eeff37000040da000000fe0000000500ba
:100600005400f80042398800503988006139880068
:100610000500fc005105200071398800a10a200066
:100620007139880029e7a8000000000000000000e0
:100630005400f900000006000400a100010037008a
:100640000400a0005400f800503988006139880087
:10065000a00f2000a00288000000eb002100240071
:1006600041398800f10f20003208bb000400a700c8
:10067000b20078000198bb002ca7ec008301e900d0
:10068000f9ff3a00680151000400a7006801510019
:10069000680050001208bb00ddff3700f30f200098
:1006a0005400f8005039880061398800a1028800a0
:1006b00011002400413988000208bb000388bb00f8
:1006c000d3ff37005400f80040398800d0ff3700ce
:1006d000f30f2000f50f20005400f8005039880077
:1006e00061398800a00f2000a00288000000eb0004
:1006f0000208bb000398bb000408bb000598bb00c0
:100700001100240041398800c1ff370003f0a20026
:10071000889fbe008a9fbe008c1f78000d010700d5
:10072000140133006450e1004f0032006420e10006
:100730005200320003826c0007003b000905d00024
:100740000306d000820f54000c065d000200390041
:100750000200320089017800030678008582550086
:1007600004003d000003fd008103fd008502ea0056
:100770008b854200840f720002003b006000100075
:10078000e08018006011b8000005eb007a28e10055
:100790000a00390006007800c75ddd00f707b200e7
:1007a000878075002d003700828171000a01780072
:1007b000610560008180d1000080d3008502e900de
:1007c000f9ff3b00060440008784480002003b001c
:1007d00060041400e0841c000988a30007003200b4
:1007e0008a81710082817100610164008904d100f5
:1007f0000884d3008b05e800170037000978a300b0
:1008000013003a000b00e000130034008b05e900f0
:100810000804440089844c000a4474000978a30049
:100820000d003a000b00e000070034008b05e900e2
:100830000804440089844c0001003a000b002000a9
:100840000978a300f7ff32000001eb000200370037
:10085000828171000a017800830007000cf0a70074
:1008600001f0a000cc0037006420e10002003a0053
:10087000838f6c00cc0033000801be000200be0074
:10088000c5003700889fbe008a9fbe008c1f78007d
:10089000b0000700b700330003866c006450e1002d
:1008a0002e0032006420e100330032006150e1008c
:1008b0002f0032006120e1003100320085855500b3
:1008c000eb07b000090020000804200005003700f5
:1008d0000804440089844c000a00310006034300e8
:1008e00087834b000001530081815b00f8ff3300d8
:1008f0000203be000800a0000804440089844c00e4
:10090000f6ff3900c639dd008301730001003200b3
:10091000130020008904d1000884d3000998a300a3
:10092000050032000800a7000300a0008904d100e0
:100930000884d3008b05e8008904d1000884d30023
:100940000001eb000281d2004700070001f0a10086
:100950000cf0a70001f0a0008f0037006420e10038
:10096000910032000801be000200be00f7ff370010
:100970006120e1008c0032006000b800f3ff370016
:100980000000200001f82700f0ff3700839f680077
:100990000100e00002003d0060001000e08018004f
:1009a0000300e00002003d0060011100e081190039
:1009b000b40007004f00e00002003b0060001000a0
:1009c000e08018000000060014002000bd00370081
:1009d000f4ff2f00bb0037000001be0048000700f5
:1009e0000470a70003f0a1006509b10016003200f1
:1009f0000d0035006828e10006003500f0ff2f00eb
:100a0000f1ff27000300e00013003b000100280075
:100a10000000050000004000818048008502e900d8
:100a2000fcff3a0008003700f88f420002003c004b
:100a30008000eb00000005008100d1000080d300a1
:100a40008502e800fcff3a000300e00002003b00e2
:100a500060001000e0801800000006004f89de00f2
:100a600082017800b20037008100200061805500cb
:100a70000b003d000b00200061fe2f000100e10093
:100a80001d00340082817100610164008904d1007d
:100a90000884d3000000e800faff3a00710020004b
:100aa0006100640003007000020060000900320071
:100ab00061044400e0844c000988a5000500320070
:100ac0008b05e8006808e10002003a008904d100c3
:100ad0000884d300f20f20000258e10005003d0019
:100ae000c75ddd00f907b200898075000800780055
:100af000000006000bf827008b00780000000500be
:100b0000c70ade00f107b200f50fb200080032009c
:100b1000e1cf4200020032000170a0002400050075
:100b2000810f700001003200040805004400050038
:100b3000810f700002003a00140005008502e900f0
:100b40000000400081c04800fcff3b000170a00095
:100b5000240005000004be00e9ff07000003be00fa
:100b60000405be000200be00e5ff0700844f7500cb
:100b7000000006000200be006450e10005003600df
:100b80006420e100020036000968a30001003a0079
:100b90000800be000160a0004f0678004f05be00af
:100ba0004f04be0000000600f0ff2f00f1ff2700f9
:100bb000f9ff3700889fbe008a9fbe008c1f780017
:100bc000e4ff0700ebff330003866c006450e10094
:100bd000240032006420e100270032006150e1006f
:100be000220032006120e100210032008b854200aa
:100bf000eb07b1000134b800003ab8000804420025
:100c000089844a00013ab8000030b800888040006a
:100c100009014a00040033000000400081804800c0
:100c2000020149008b05e900c909dd00830170005c
:100c30000100320013002000c814de004814dd005b
:100c40004709de001200b200c808de000884700008
:100c500085ff070001f0a1000cf0a70001f0a00043
:100c6000cdff37006120e100cfff32000801be0058
:100c70000200be00f7ff37006150e100fcff3a00c0
:100c8000c9ff37006022b800060220000000d00033
:100c90008180d2000482d2008582d2000000a000b0
:100ca0000202520083825a00030031000202420015
:100cb00083824a000000a1000603e900f3ff3a0026
:100cc00000000600889fbe008a9fbe00841f780037
:100cd000a0ff07004f00780011003300f0ff2f0045
:100ce000838f6c0006003b00040565000a00a70026
:100cf0000800370009f0a6001000200008003700a7
:100d0000820f5400838f5c00030039001000200024
:100d100001003e000000200009f0a7000000ea00ea
:100d20004f05be004f04be000000e00000000600ba
:100d3000881f7800030478000300e00007003d00ee
:100d400060001000e080180060011900e0811900c7
:100d500002003b0001f02d000300370004000700f3
:100d600008f0a70001f0a0004f0478000000060082
:100d7000889fbe008a9fbe0000827000040271003e
:100d800004827100260032000004be000200be0092
:100d90006011b8006b092000950220000182cf008d
:100da0000a0039000541b1000082cf000700390078
:100db0000541b1000982cf00040039000541b100ae
:100dc0000882cf00010039000541b1000542520000
:100dd000120032000a003b00828171006101640050
:100de0008100d1000080d3008984d3000884d3001f
:100df0008b05e8000442e800f7ff3a0007003700df
:100e00000804440089844c000000480081804800a8
:100e10008b05e9000442e900f9ff3a0012ff0700e0
:0c0e20004f05be004f04be00000006009d
:020000040000fa
:100e2c000000fa0000102000a002880000802000c2
:100e3c00208888000e0037003088800031888000c0
:100e4c0081804000010178002188800081004100f0
:100e5c009100ba0000014000400021000000410058
:100e6c0001087800308880000000e8003088880095
:100e7c0031888000f0072000808f5000eeff360094
:100e8c000080fa00000006000400fa0010002400a4
:100e9c0040398800a00f2000a00288000431ef0028
:100eac0000102000000f7800008020001007980030
:100ebc000631ef002d003700308880000000400024
:100ecc0080004000400021000080400010007800ad
:100edc0080007800208880000108bb0030888000ea
:100eec00000040000000e8008000400040002100ad
:100efc00008040001000780080007800208880007e
:100f0c000080e8000108bb009e0078006139880071
:100f1c0030888000c200dd001e0090000080400080
:100f2c005039880011028000000e20000100700072
:100f3c00100288005005200070398800a00a20009b
:100f4c007039880029e7a8000000000000000000ac
:100f5c0011028000f0f12f00008060001002880068
:100f6c00308880000000e8003088880031888000dc
:100f7c00f0032000808f5000cfff36000080fa0075
:100f8c00000006000000fa00008020000110200084
:100f9c00008088001180880011028000000e200063
:100fac000100700010028800008080001180800019
:100fbc00320024008ffd070011028000f0f12f0099
:100fcc0000806000100288000080fa00000006001b
:020000040000fa
:1010000000000000980600001b0f0000cc0e00003e
:101010002400000053070000000000000000000052
:1010200000000000000000000000000000000000c0
:1010300000000000000000000000000000000000b0
:1010400000000000000000000000000000000000a0
:101050000000000000000000000000000000000090
:020000040000fa
:101800000800fa009304070088fd07000040eb0081
:10181000004f78000000eb00100798000971ef00fe
:101820000871ef00070037000000000005003700d6
:101830000000000003003700000000000100370036
:101840000000000020808000308c880060808000d4
:10185000508c880050808000cf80de007ffc070025
:10186000020020006339240006fc0700308a88004b
:10187000418a880040808000cf80de0077fc07002e
:101880000200280083392400fefb0700508a8800ec
:10189000618a880030808000cf80de006ffc070006
:1018a0000200280083392400f6fb0700708a8800b4
:1018b000818a880070808000408c88009170800050
:1018c00000002800008060000000e0007e00320080
:1018d000150ea800152ea8001e4078000004e00098
:1018e00005003a00aafd07006afd070010c0b3001a
:1018f000004f7800d3ff370009d1bf000004e0009b
:101900001c003a0053050700cf80de0053fc07009f
:101910000002be00308a8000418a80000001be00c3
:101920000400be00d7fb07002bfc0700f0898800ed
:10193000018a8800f0898000018a800047fc070046
:101940000002be00708a8000818a80000001be0013
:101950000400be0097fc07001ffc0700100798005a
:101960001e0090002406070040062000dc0407004b
:10197000b4ff37003cd1bf00e14f5000aaff3a004e
:1019800008d1bf00e14f5000a9ff3a003105070020
:10199000cf80de0031fc07000002be00308a8000ec
:1019a000418a80000001be000400be00b5fb0700b4
:1019b00009fc0700f0898800018a880047050700b4
:1019c000cf80de0025fc07000002be00508a8000a8
:1019d000618a80000001be000400be00a9fb070070
:1019e000fdfb0700108a8800218a8800f2898000a8
:1019f000038a80004000200001002000800f510079
:101a0000818f590003003c0050002000fa050700b8
:101a10008cff3700108a8000218a80000001780046
:101a2000f0898000018a8000000078008200780040
:101a300098020700e10f50007fff360027050700de
:101a4000cf80de0005fc07000002be00508a800047
:101a5000618a80000001be000400be0089fb07000f
:101a6000ddfb0700108a8800218a8800208c800016
:101a70006101b900f0898000018a8000809ab90074
:101a8000828bb90086027800050242000010b8007f
:101a90000102420084007800128a8000238a8000bc
:101aa000bafb0700100798001e009000d20507003f
:101ab000401f20008a04070021c0b3004006200018
:101ac0004e0207005fff3700917080000000280081
:101ad000008060000000e00059ff3a00150ea900e8
:101ae000152ea8009002800020079800ff3ffc0000
:101af00011028000000e200001007000100288001a
:101b00002e00900090028800a08a80000000e00073
:101b10000800320031488000d0922000808f5000b1
:101b200004003e0031488000a08a80000080400010
:101b3000304888005431ef00900280003007980050
:101b4000ff3ffc0011028000f0f12f008080600058
:101b50000006200001007000100288003e00900086
:101b600090028800917080000000240000806000d6
:101b70000000e0001f003a00917080000000220089
:101b8000008060000000e0001a00320091708000c8
:101b900000002100008060000000e000150032001d
:101ba0009170800000802000008060000000e00054
:101bb0001000320090708000640060000000e000bf
:101bc0000c0032001e4078000004e00008003a00db
:101bd00030488000501db1002080880010c0b30044
:101be000004f780021c0b300400620000302070028
:101bf000a00037009170800000002200008060008b
:101c00000000e00025003a009170800000002400f0
:101c1000008060000000e000200032009170800031
:101c200000002100008060000000e0001b00320086
:101c30009170800000802000008060000000e000c3
:101c40001600320090708000640060000000e00028
:101c5000120032001e4078000004e0000e003a003e
:101c6000314880002080800000805000501db1006d
:101c70003080880099040700408088004080800000
:101c80007080880010c0b300004f780021c0b300fe
:101c900040062000d90107007600370091708000cf
:101ca00000002100008060000000e0001e003a00fb
:101cb0009170800000002200008060000000e000c1
:101cc0001900320091708000000024000080600044
:101cd0000000e000140032009170800000802000bd
:101ce000008060000000e0000f0032009070800073
:101cf000640060000000e0000b0032001e4078002d
:101d00000004e00007003a005204070050808800f9
:101d100010c0b300004f780021c0b300400620007f
:101d2000b60107005300370091708000008020004a
:101d3000008060000000e0001e003a00917080000a
:101d400000002200008060000000e0001900320066
:101d50009170800000002100008060000000e00021
:101d600014003200917080000000240000806000a8
:101d70000000e0000f0032009070800064006000fe
:101d80000000e0000b0032001e4078000004e0007c
:101d900007003a00f20407006080880021c0b30009
:101da000400620009501070010c0b300004f7800e6
:101db0003000370090708000640060000000e00098
:101dc00029003a00917080000080200000806000af
:101dd0000000e0002400320091708000000022002a
:101de000008060000000e0001f0032009170800061
:101df00000002100008060000000e0001a003200b6
:101e00009170800000002400008060000000e0006d
:101e1000150032001e4078000004e00011003a0076
:101e2000c08b800020808800d08b800030808800ac
:101e3000e08b800040808800f08b8000508088001c
:101e4000008c800060808800108c8000708088008a
:101e500021c0b300400620006801070010c0b30095
:101e6000004f7800030037000040eb00004f78007f
:101e700074fe370073fe37000000fa00c1e1a800cd
:101e8000ca21ef00803e2000300e8800c3c1a800a8
:101e9000110e80000080230001007000100e8800e9
:101ea000c041a900010e8000000720000100700061
:101eb000000e8800c581a800803e2000e00e88004a
:101ec000de21ef00c541a800803e2000000f880001
:101ed000e221ef00ce21ef00d021ef00d221ef0070
:101ee000d421ef000748a9002748a8000080fa0085
:101ef000000006003600f800809fbe00829fbe00f2
:101f0000849fbe00869fbe00889fbe000600fa0028
:101f1000300e8000000f7800900e800010079800af
:101f2000a00e800020079800803e20009e007800d0
:101f3000808f500002003a000748a900ea003700ed
:101f4000907080004700de00e140600090708000eb
:101f50004600de006140600080cf5000d1003a00b2
:101f60000621ef003471ef0011e1a800803e20004f
:101f70009e007800808f500007003c001e009000fb
:101f8000ae00900060001000e0801800b08a880069
:101f9000c18a8800040037001e009000ae00900047
:101fa000b08a8800c18a8800d08a8000e18a8000d7
:101fb000e00f5000e08f580005003500b08a800027
:101fc000c18a8000e00f5000e08f58000a003d00f9
:101fd000d08a8000e18a8000e00f5000e08f580036
:101fe00020003c00b08a8000c18a8000e00f5000d1
:101ff000e08f58001b003c0035d1bf00e14f50007e
:102000000f003a003571ef00803e20009e007800fe
:10201000808f500005003c0000102c0041e52f008f
:10202000f08a8800018b88001000370000f0230040
:10203000b11a2000f08a8800018b88000b0037005d
:10204000d28a8000e38a8000b08a8000c18a800042
:102050000200400083804800f08a8800018b8800dd
:10206000020037005e31ef006031ef005a31ef00bf
:102070005c31ef005631ef005831ef00f08a8000fc
:10208000018b8000e00f5000e08f58009500320077
:10209000f08a8000018b800070fa0700108b8800a6
:1020a000218b8800108b8000218b8000d27f28003c
:1020b00083002400bffa0700024022004397240057
:1020c000f0f90700108b8800218b88005e31ef004b
:1020d0006031ef00108b8000218b800018c0b300ae
:1020e000f2282c0053c7230039fa07000000e00053
:1020f00001003d000044eb000804e0000b003a0042
:10210000108b8000218b800018c0b300f2282c00b7
:1021100053c72b002cfa07000000e0000100340038
:102120000044eb000804e0000c003200703e200088
:102130009e007800808f500004003400a08a800048
:102140000000e800a08a880067003700a08a8000ad
:102150000000e900a08a880063003700108b80002f
:10216000218b800018c0b300a2702d0033ba230069
:1021700015fa07000000e000010034000044eb0005
:102180000804e0000b003a00108b8000218b8000d7
:1021900018c0b300a2702d0033ba2b000cfa070050
:1021a0000000e00001003d000044eb000804e000f6
:1021b0000c003200703e20009e007800808f50009e
:1021c00004003400a08a80007c004000a08a8800bf
:1021d00045003700a08a80007c005000a08a88005b
:1021e00041003700703e20009e007800808f500034
:1021f00016003400a08a8000cf80de0017fa0700a6
:102200000004be00108b8000218b8000a2702d0086
:1022100033ba23003df9070002002c0083522c0042
:1022200064fa07000001be000800be0038f907008c
:1022300002002000031e240035f90700e6f907001c
:1022400000007800a08a880027003700a08a80005c
:10225000cf80de0001fa07000004be00108b800072
:10226000218b8000a2702d0033ba230028f90700cb
:1022700002002c0083522c004efa07000001be0021
:102280000800be0022f9070002002000031e2400ff
:102290001ef90700d0f9070000007800a08a880026
:1022a00011003700803e20009e007800808f500093
:1022b00007003c001e009000ae009000600010007f
:1022c000e0801800d08a8800e18a88000600370084
:1022d0001e009000ae009000d08a8800e18a88003d
:1022e0000100370000000000ca21ef00803e2000fe
:1022f000300e88000748a9000080fa004f04be0095
:102300004f03be004f02be004f01be004f00be0093
:102310003600f900004006000400fa00100798009b
:10232000b18b80001e0090008088b9004200dd0063
:10233000000f7800010037001e0fe9001e00780032
:102340000000e000fcff3a000080fa0000000600f8
:102350000800fa00300798003e009000f400b90031
:102360002007980010003700001a2000010020000c
:10237000008fbe00050037000060fe000081eb000a
:102380008081eb001e0f41005e9749001e00be00d9
:10239000e00f5000e08f5800f7ff3a002e00900049
:1023a0000000e900200798002e0090000000e000e7
:1023b000edff3a000080fa00000006000400fa0079
:1023c000100798000000eb00000f780005003700b0
:1023d00036d1bf00e14f500002003a003671ef00e5
:1023e0001e0fe8001e0090009e007800808f5000b5
:1023f000f7ff3a000080fa00000006000600fa002d
:1024000010079800414798000040eb00004f78000b
:1024100007003700152ea9001e009000e7ff0700f7
:10242000152ea8001e009000e4ff07001e4fe800d4
:102430004e4090009e40780080cf5000f5ff39005c
:102440000080fa00000006000600fa00100798005d
:10245000414798000040eb00004f7800070037002c
:10246000150ea9001e009000d4ff0700150ea8004d
:102470001e009000d1ff07001e4fe8004e40900064
:102480009e40780080cf5000f5ff39000080fa00b0
:10249000000006000400fa00000f78001107980001
:1024a0001e0090009e007800808f500003003500d1
:1024b0001e0090001e001000020037001e00900059
:1024c0001e0050000080fa00000006000e00fa0016
:1024d00050079800414f98005e00900090007800ef
:1024e000110798001e019000220798000040eb00a1
:1024f000004f78001d0037001e80fb0000004000e8
:10250000de00900000804000900078001e009000e7
:10251000808f5000060031001e80fb00000040004c
:10252000de009000008040009000780011079800c5
:102530001e80fb0000004000de0090000080400094
:10254000900078002e009000808f5000060036002a
:102550001e80fb0000004000de0090000080400074
:1025600010017800220798001e4fe8004e489000a6
:102570009e40780080cf5000dfff39000000eb0064
:10258000300798000000eb00400798000040eb0087
:10259000004f7800090037001e80fb00000040005b
:1025a000de0090000080400010007800be00900027
:1025b00000804000300798001e4fe8004e48900011
:1025c0009e40780080cf5000f3ff3900be0090009d
:1025d0001e009000808050002e009000008050006f
:1025e000300798004e4890000080fb000080e90012
:1025f000be00900000017800110009008280d80020
:10260000400798004e0090000080fa00000006008d
:102610000a00fa0030079800410798004e00900029
:102620000000e00002003a000080eb002a003700c2
:102630003e009000100f78003e009000900078005f
:10264000110798000000eb00200798001d003700dc
:102650002e00900000004000be009000008040006e
:10266000100078009e0f5000050034002e009000ee
:1026700000004000be00900000804000100f780075
:102680002e00900000004000be009000008040003e
:10269000900078001e009000808f500006003d00e2
:1026a0002e00900000004000be009000008040001e
:1026b00090007800110798002e0090000000e800bc
:1026c00020079800ae0090004e009000808f5000d0
:1026d000dfff35001e0078000080fa0000000600d1
:1026e0000a00fa0030079800410798004e00900059
:1026f0000000e00002003a000080eb002a003700f2
:102700003e009000100f78003e009000900078008e
:10271000110798000000eb00200798001d0037000b
:102720002e00900000004000be009000008040009d
:10273000100078009e0f5000050034002e0090001d
:1027400000004000be00900000804000100f7800a4
:102750002e00900000004000be009000008040006d
:10276000900078001e009000808f500006003d0011
:102770002e00900000004000be009000008040004d
:1027800090007800110798002e0090000000e800eb
:1027900020079800ae0090004e009000808f5000ff
:1027a000dfff35001e0090000080fa0000000600e8
:1027b0000000fa003000200000708800408c2f00dc
:1027c00080708800062eef00162eef000080eb00d0
:1027d000a07088000080eb0020708800300020008e
:1027e000707088001e2eef000080fa0000000600c6
:1027f0000000fa00113a8000f00b20000081600018
:1028000060042000710520002374200080497800b6
:1028100081497800824978004134800000fc2f0013
:10282000008060000040a00040348800e135800056
:1028300000f82f008080600070022000010070000e
:10284000e0358800e1358000f00f280080806000ce
:102850000060220001007000e0358800103a80001e
:10286000000178000260a0006004200071052000d3
:1028700023742000804978008149780082497800db
:102880000080fa00000006000000fa00413a8000d3
:1028900000fc2f00008060007000b300403a880008
:1028a000213a800000fe2f0000806000203a88005e
:1028b0004567a900213a8000f08f2f00008060005a
:1028c000203a8800213a8000f0f32f000080600059
:1028d000203a8800313a800000e02f0080806000bc
:1028e000f003200001007000303a88001200200040
:1028f00080072000a109200033742000804978005f
:10290000814978008249780012002000600420008c
:1029100071052000237420008049780081497800e7
:10292000824978000600370000000000113a80005c
:1029300000022000008060000000e000fbff320089
:10294000113a800000002700808060000000210014
:10295000808f5000f4ff3a00203a80000040780059
:102960007f40600000c0e80073f1b700203a8000ab
:102970004600de00634060000080fb000000e800cd
:10298000004078000040400074f1b700313a800008
:10299000f01f2000008060000040780000c0e800c8
:1029a00072f1b7008078260001072000708b880044
:1029b000818b880072d1bf000081fb008001eb0099
:1029c000708b8000818b8000809ab900828bb90067
:1029d00086027800050242000010b80001024200a1
:1029e0008400780032172100124178008281fb00b8
:1029f00042172100124178000281fb008299b90040
:102a0000cf91de009ff80700308b8800418b880053
:102a1000308b8000418b80008100d1000080d3008a
:102a2000508b8800618b8800508b8000618b800008
:102a300002902000d303200092f8070000007800e5
:102a4000b08b88002003200041fe07000080fa00c0
:102a5000000006000000fa008bff070054ff07008b
:102a600063ff0700a600070010002000ec0007002d
:102a7000cd01070000fd0700160007000600070053
:102a80002200070021002000400620006efe070003
:102a90000080fa00000006000000fa0005e1a8002e
:102aa00021088000f0fc2f00008060000050a00092
:102ab000200888000421a9000021ef0010c2250091
:102ac000100888000068a9002068a8000080fa00ab
:102ad000000006000000fa001021a9008108800013
:102ae0000003200001007000800888000621ef002c
:102af000d06825006008880000e8a90020e8a80048
:102b000011e1a8000080fa00000006000000fa00b1
:102b10001221a9009108800000032000010070002c
:102b2000900888000a21ef00a00e2000700888009d
:102b30000108a9002108a80013e1a8000080fa00fc
:102b4000000006003600f800809fbe00829fbe0095
:102b5000849fbe00869fbe00881f78000800fa0090
:102b6000908980000000e8009089880090898000aa
:102b7000ea0f500001003a003231ef0098898000de
:102b8000d600070008014400a11021008100410087
:102b90008008780098898000ae0007000801440092
:102ba000e11121008100410080087800a10020008f
:102bb000e011210096fe0700000f7800a100200020
:102bc000e0112100c6fe070010079800a1002000b8
:102bd000a01021008efe070020079800a100200011
:102be000a0102100befe0700300798001e009000d4
:102bf0001e001000ed0f500003003c0010c0b30099
:102c000009f1b700010037000971ef00ae00900034
:102c10003e00900000805000ed0f500003003c008b
:102c200010c0b30008f1b700010037000871ef00d1
:102c30000021ef000068a9000080fa004f0478002e
:102c40004f03be004f02be004f01be004f00be004a
:102c50003600f90000400600801f78000000fa00ee
:102c600034d1bf000040e80034f1b70034d1bf00d8
:102c7000ea4f500004003a003471ef0011e1a9005e
:102c800010c0b30035f1b70000e8a9000080fa00d9
:102c90004f00780000400600809fbe000000fa0050
:102ca00010c0b30036f1b700c1898000d089800020
:102cb000808f500004003d00c08980000000e800c3
:102cc000c08988000200370010c0b3003cf1b70093
:102cd0000108a9000080fa004f00be000040060075
:102ce0000200fa00000f78003831ef009e007800f3
:102cf000d18988003c71ef000080fa0000000600d6
:102d00000000fa001e2eef00f07080007070880046
:102d10000e0ea8000e2ea8003003a8003023a80035
:102d200021e3a9002003a90021a3a9002143a800b1
:102d300001198000f0cf2f0000806000001988008a
:102d40002023a9002183a9002063a9002083a900d2
:102d50002043a80001198000000e2000010070002f
:102d60000019880011198000f0ff21000080600028
:102d7000101988002343a80011198000f0cf2f00fc
:102d800000806000101988001119800030f82f00b1
:102d9000008060000020a000101988002223a900f4
:102da00022e3a90025e3a900b0c0b30024e3b700e3
:102db00021198000f00f2e008080600000f02000bc
:102dc00001007000201988003303a9003119800028
:102dd00090ff2f00008060003019880031198000ba
:102de000f09f2f0000806000301988002703a900a1
:102df0002603a90029e3a90028e3a90031428000a5
:102e0000f0f82f00808060000005200001007000b5
:102e10003042880001a8a9000080fa0000000600e6
:102e20000200fa00004f78009e40780061c0600008
:102e30000080fb004f00dd0002198000f1ff270039
:102e40008100610001007000001988000080fa0014
:102e5000000006001800fa00e4004700090009001d
:102e60008018eb000040eb00004f780011003700a5
:102e70000060fe00010037000000000001408000fb
:102e800000002200008060000000e000f8ff320037
:102e900001a8a900400120001ffd07001e80fb00c3
:102ea00001188000000040006400400001377800f5
:102eb0001e4fe8001e407800e94f5000eeff36003c
:102ec00064004700a1c0b30080fd07001007980010
:102ed0001e0090000080fa00000006001800fa00b2
:102ee000e4004700090009008018eb000040eb00f7
:102ef000004f7800110037000060fe00010037002d
:102f000000000000014080000000220000806000fe
:102f10000000e000f8ff320001a8a90040012000f5
:102f2000fdfc07001e80fb0011188000000040001f
:102f300064004000013778001e4fe8001e40780012
:102f4000e94f5000eeff360064004700a1c0b30017
:102f50005efd0700100798001e0090000080fa0038
:102f6000000006000800fa0030079800a00f2000bb
:102f700012fd0700d9ff0700000f78003e00900007
:102f80001e00100000f0a7000000ea0010079800e3
:102f900090002000200798009e0090002e009000d6
:102fa000808f50000200350010c0b30001003700d0
:102fb0000040eb000080fa00000006000800fa0064
:102fc000c6ff0700000f7800a00f2000fbfc0700e1
:102fd000c2ff0700100798001e0090001e0050005e
:102fe00000f0a7000000ea002007980090002000f1
:102ff00030079800ae0090003e009000808f500097
:10300000020035000040eb000100370010c0b300a3
:103010000080fa00000006000200fa00000f7800ad
:10302000e093240020488800314880001e0078008a
:1030300000804000304888000080fa000000060050
:103040000600fa001007980021079800903a200027
:103050006900070002003700a00f2000d7fc07001e
:10306000d6ff07000004e000fbff320080092000cb
:10307000e9ff0700c0122000d0fc07000200370063
:10308000a00f2000cdfc0700ccff07000004e000eb
:10309000fbff32001e0090008040eb0001487800ea
:1030a0008eff0700000f78000080eb00daff0700ba
:1030b0001e007800abff07000004e00007003a00a4
:1030c0001e009000104078000040e800804078002a
:1030d0001e00900001487800f3ff370011c0b300d4
:1030e00040062000c5fc070080f62f00caff07003d
:1030f000c0122000b1fc070002003700a00f200022
:10310000aefc0700adff07000004e000fbff32004b
:1031100072ff0700000f78002e0090008040eb0047
:103120000148780010002000bbff07001e00780057
:103130008cff07000004e00007003a002e0090001a
:10314000104078000040e800804078002e00900099
:1031500001487800f3ff37000080fa000000060005
:103160000200fa000e00e800800078000e007800ef
:10317000b3ff07001e4078008000fb001e40900057
:103180000000fb008080400020002000000178004b
:10319000110009008200d800508c8800508c8000fb
:0831a0000080fa0000000600a7
:020000040000fa
:1031a8000000fa000029ef000229ef000148800022
:1031b800f03f2e000080600000c0a000004888009a
:1031c8000148800080ff2f00008060006000b3008d
:1031d8000048880010488000f001b30010488800bb
:1031e800e0932400204888000080fa0000000600d0
:1031f8000200fa00000f7800418c8000308c8000bb
:10320800008050009e0f500015003400208c800074
:103218001e0010000000e00007003500308c800020
:10322800501db0009e004000508c8000008040007f
:103238003048880008003700208c80001e001000ed
:103248000000e00004003d00308c8000501db000fc
:103258001e004000304888009e007800218c8800bd
:083268000080fa0000000600de
:020000040000fa
:10327000781100000c0000008200000000004900ee
:10328000061b0f00cc0e2400005307003e11000067
:103290001600000080000000541100001200000021
:1032a0008000000066110000120000008000000095
:1032b000841100000400000080000000881100005c
:1032c0000200000082000000530700000010000010
:1032d0000801000080000000081100003600000016
:1032e000800000008a110000020000008000000041
:0432f00000000000da
:020000040000fa
:04afe000cdff0000a1
:020000040000fa
:04afe400ffff00006b
:020000040000fa
:04afe8007fff0000e7
:020000040000fa
:04afec001bff000047
:020000040000fa
:04aff00078ff0000e6
:020000040000fa
:04aff400ffff00005b
:00000001FF
